:02000000FE2BD5
:1006CC008316860183129801980A803083121802CF
:1006DC0003189E2B1808860018089500150796001D
:1006EC001608980082309600DD309500950B7C2B17
:1006FC00960B7C2B812B6B2B1808860002308C0000
:10070C0000308D0018089500960115088E0016080B
:10071C008F00A42383120C089700170898008230CE
:10072C009600DD309500950B992B960B992B9E2BF3
:10073C00023083121802031C6B2B822B8312920142
:10074C008D1FAF2B8C098D098C0A03198D0A920110
:10075C00920A8F1FBA2B8E098F098E0A03198F0AE2
:10076C000130900010089206930194010C080D04BE
:10077C000319F12B9101910A8D1BD02B0130031021
:10078C008C0D8D0DFF3E031DC52B01309000100804
:10079C009107C22B01300310930D940DFF3E031DE6
:1007AC00D12B0D080F02031DDD2B0C080E02031CB0
:1007BC00E62B0C088E020D08031C8F038F021314FA
:1007CC00013003108D0C8C0CFF3E031DE72B013008
:1007DC009102031DD02B12080319F92B93099409CC
:1007EC00930A0319940A14088D0013088C0008004E
:0407FC008301662BE4
:00000001FF
