:02000000FE2BD5
:1006A6008316860181308312860082308D00DD300C
:1006B6008C008C0B5C2B8D0B5C2B612B42308312D8
:1006C600860082308D00DD308C008C0B682B8D0B04
:1006D600682B6D2B24308312860082308D00DD302E
:1006E6008C008C0B742B8D0B742B792B183083128A
:1006F600860082308D00DD308C008C0B802B8D0BBC
:10070600802B852B18308312860082308D00DD30D9
:100716008C008C0B8C2B8D0B8C2B912B2430831205
:10072600860082308D00DD308C008C0B982B8D0B73
:10073600982B9D2B42308312860082308D00DD304F
:100746008C008C0BA42B8D0BA42BA92B8130831230
:10075600860082308D00DD308C008C0BB02B8D0B2B
:10076600B02BB52B42308312860082308D00DD30EF
:100776008C008C0BBC2B8D0BBC2BC12B2430831215
:10078600860082308D00DD308C008C0BC82B8D0BE3
:10079600C82BCD2B18308312860082308D00DD30B9
:1007A6008C008C0BD42B8D0BD42BD92B18308312A9
:1007B600860082308D00DD308C008C0BE02B8D0B9B
:1007C600E02BE52B24308312860082308D00DD304D
:1007D6008C008C0BEC2B8D0BEC2BF12B4230831207
:1007E600860082308D00DD308C008C0BF82B8D0B53
:0A07F600F82BFD2B552B8301532B2C
:00000001FF
