:02000000FD2BD6
:10076A00831605148514860183128E018E0A8C1055
:10077A0005188C1483120C1085180C1483128D1C06
:10078A00C82B0130C92B00308F008C1CCE2B0130B6
:10079A00CF2B00300F060319DF2B8D108C1CD62BA4
:1007AA008D1483128C18DF2B02300E02031CDF2BF0
:1007BA0003108E0C0D1CE32B0130E42B00308F004C
:1007CA000C1CE92B0130EA2B00300F060319FA2B17
:1007DA000D100C1CF12B0D1483120C18FA2B8030FF
:1007EA000E020318FA2B03108E0D0E088600BC2B7E
:0607FA008D018301B52B07
:00000001FF
