:02000000FE2BD5
:10077C008316061006138312061403308E008A307B
:10078C008D0055308C008C0BC92B8D0BC92B8E0B0F
:10079C00C92BD02B8312061003308E008A308D00AB
:1007AC0055308C008C0BD82B8D0BD82B8E0BD82B5B
:1007BC00DF2B8312061703308E008A308D005530E4
:1007CC008C008C0BE72B8D0BE72B8E0BE72BEE2B7A
:1007DC008312061303308E008A308D0055308C0046
:1007EC008C0BF62B8D0BF62B8E0BF62BFD2B002882
:0407FC008301BE2B8C
:00000001FF
